{
  "contractName": "PredictionMarket",
  "abi": [
    {
      "inputs": [
        {
          "internalType": "address",
          "name": "_oracle",
          "type": "address"
        }
      ],
      "stateMutability": "nonpayable",
      "type": "constructor"
    },
    {
      "inputs": [
        {
          "internalType": "enum PredictionMarket.Side",
          "name": "",
          "type": "uint8"
        }
      ],
      "name": "bets",
      "outputs": [
        {
          "internalType": "uint256",
          "name": "",
          "type": "uint256"
        }
      ],
      "stateMutability": "view",
      "type": "function"
    },
    {
      "inputs": [
        {
          "internalType": "address",
          "name": "",
          "type": "address"
        },
        {
          "internalType": "enum PredictionMarket.Side",
          "name": "",
          "type": "uint8"
        }
      ],
      "name": "betsPerGambler",
      "outputs": [
        {
          "internalType": "uint256",
          "name": "",
          "type": "uint256"
        }
      ],
      "stateMutability": "view",
      "type": "function"
    },
    {
      "inputs": [],
      "name": "electionFinished",
      "outputs": [
        {
          "internalType": "bool",
          "name": "",
          "type": "bool"
        }
      ],
      "stateMutability": "view",
      "type": "function"
    },
    {
      "inputs": [],
      "name": "oracle",
      "outputs": [
        {
          "internalType": "address",
          "name": "",
          "type": "address"
        }
      ],
      "stateMutability": "view",
      "type": "function"
    },
    {
      "inputs": [],
      "name": "result",
      "outputs": [
        {
          "internalType": "enum PredictionMarket.Side",
          "name": "winner",
          "type": "uint8"
        },
        {
          "internalType": "enum PredictionMarket.Side",
          "name": "loser",
          "type": "uint8"
        }
      ],
      "stateMutability": "view",
      "type": "function"
    },
    {
      "inputs": [
        {
          "internalType": "enum PredictionMarket.Side",
          "name": "_side",
          "type": "uint8"
        }
      ],
      "name": "placeBet",
      "outputs": [],
      "stateMutability": "payable",
      "type": "function"
    },
    {
      "inputs": [],
      "name": "withdrawGain",
      "outputs": [],
      "stateMutability": "nonpayable",
      "type": "function"
    },
    {
      "inputs": [
        {
          "internalType": "enum PredictionMarket.Side",
          "name": "_winner",
          "type": "uint8"
        },
        {
          "internalType": "enum PredictionMarket.Side",
          "name": "_loser",
          "type": "uint8"
        }
      ],
      "name": "reportResults",
      "outputs": [],
      "stateMutability": "nonpayable",
      "type": "function"
    }
  ],
  "bytecode": "0x608060405234801561001057600080fd5b50604051610a09380380610a098339818101604052602081101561003357600080fd5b810190808051906020019092919050505080600460006101000a81548173ffffffffffffffffffffffffffffffffffffffff021916908373ffffffffffffffffffffffffffffffffffffffff16021790555050610974806100956000396000f3fe60806040526004361061007b5760003560e01c80637e0ecc001161004e5780637e0ecc00146101515780639a9056e2146101a35780639d5a3739146101ee578063beab6e7e146102605761007b565b80632b539c8614610080578063430468441461009757806365372147146100c85780637dc0d1d014610110575b600080fd5b34801561008c57600080fd5b5061009561028d565b005b6100c6600480360360208110156100ad57600080fd5b81019080803560ff1690602001909291905050506105b1565b005b3480156100d457600080fd5b506100dd6106e8565b604051808360018111156100ed57fe5b81526020018260018111156100fe57fe5b81526020019250505060405180910390f35b34801561011c57600080fd5b50610125610714565b604051808273ffffffffffffffffffffffffffffffffffffffff16815260200191505060405180910390f35b34801561015d57600080fd5b5061018d6004803603602081101561017457600080fd5b81019080803560ff16906020019092919050505061073a565b6040518082815260200191505060405180910390f35b3480156101af57600080fd5b506101ec600480360360408110156101c657600080fd5b81019080803560ff169060200190929190803560ff169060200190929190505050610752565b005b3480156101fa57600080fd5b5061024a6004803603604081101561021157600080fd5b81019080803573ffffffffffffffffffffffffffffffffffffffff169060200190929190803560ff169060200190929190505050610906565b6040518082815260200191505060405180910390f35b34801561026c57600080fd5b5061027561092b565b60405180821515815260200191505060405180910390f35b6000600360003373ffffffffffffffffffffffffffffffffffffffff1673ffffffffffffffffffffffffffffffffffffffff16815260200190815260200160002060008060000160009054906101000a900460ff1660018111156102ed57fe5b60018111156102f857fe5b81526020019081526020016000205490506000811161037f576040517f08c379a00000000000000000000000000000000000000000000000000000000081526004018080602001828103825260208152602001807f796f7520646f6e206e6f74206861766520616e792077696e6e696e672062657481525060200191505060405180910390fd5b60001515600160009054906101000a900460ff16151514610408576040517f08c379a00000000000000000000000000000000000000000000000000000000081526004018080602001828103825260158152602001807f656c656374696f6e206e6f742066696e6973686564000000000000000000000081525060200191505060405180910390fd5b6000600260008060000160009054906101000a900460ff16600181111561042b57fe5b600181111561043657fe5b81526020019081526020016000205482600260008060000160019054906101000a900460ff16600181111561046757fe5b600181111561047257fe5b815260200190815260200160002054028161048957fe5b04820190506000600360003373ffffffffffffffffffffffffffffffffffffffff1673ffffffffffffffffffffffffffffffffffffffff16815260200190815260200160002060008060018111156104dd57fe5b60018111156104e857fe5b8152602001908152602001600020819055506000600360003373ffffffffffffffffffffffffffffffffffffffff1673ffffffffffffffffffffffffffffffffffffffff168152602001908152602001600020600060018081111561054957fe5b600181111561055457fe5b8152602001908152602001600020819055503373ffffffffffffffffffffffffffffffffffffffff166108fc829081150290604051600060405180830381858888f193505050501580156105ac573d6000803e3d6000fd5b505050565b60001515600160009054906101000a900460ff1615151461063a576040517f08c379a00000000000000000000000000000000000000000000000000000000081526004018080602001828103825260148152602001807f656c656374696f6e2069732066696e697368656400000000000000000000000081525060200191505060405180910390fd5b346002600083600181111561064b57fe5b600181111561065657fe5b81526020019081526020016000206000828254019250508190555034600360003373ffffffffffffffffffffffffffffffffffffffff1673ffffffffffffffffffffffffffffffffffffffff16815260200190815260200160002060008360018111156106bf57fe5b60018111156106ca57fe5b81526020019081526020016000206000828254019250508190555050565b60008060000160009054906101000a900460ff16908060000160019054906101000a900460ff16905082565b600460009054906101000a900473ffffffffffffffffffffffffffffffffffffffff1681565b60026020528060005260406000206000915090505481565b3373ffffffffffffffffffffffffffffffffffffffff16600460009054906101000a900473ffffffffffffffffffffffffffffffffffffffff1673ffffffffffffffffffffffffffffffffffffffff1614610815576040517f08c379a000000000000000000000000000000000000000000000000000000000815260040180806020018281038252600b8152602001807f6f6e6c79206f7261636c6500000000000000000000000000000000000000000081525060200191505060405180910390fd5b60001515600160009054906101000a900460ff1615151461089e576040517f08c379a00000000000000000000000000000000000000000000000000000000081526004018080602001828103825260148152602001807f656c656374696f6e2069732066696e697368656400000000000000000000000081525060200191505060405180910390fd5b816000800160006101000a81548160ff021916908360018111156108be57fe5b0217905550806000800160016101000a81548160ff021916908360018111156108e357fe5b021790555060018060006101000a81548160ff0219169083151502179055505050565b6003602052816000526040600020602052806000526040600020600091509150505481565b600160009054906101000a900460ff168156fea26469706673582212200f68de658bb8de12f8fa1c0bae13f68625ed0f83cf1b50d2fe3d0f3d2b994ce264736f6c63430007030033",
  "immutableReferences": {},
  "source": "// SPDX-License-Identifier: MIT\r\npragma solidity >=0.4.22 <0.9.0;\r\n\r\ncontract PredictionMarket {\r\n    enum Side {Biden, Trump}\r\n    struct Result {\r\n        Side winner;\r\n        Side loser;\r\n    }\r\n    Result public result;\r\n    bool public electionFinished;\r\n\r\n    mapping(Side => uint) public bets;\r\n    mapping(address => mapping(Side => uint)) public betsPerGambler;\r\n\r\n    address public oracle;\r\n\r\n    constructor(address _oracle){\r\n        oracle = _oracle;\r\n    }\r\n\r\n    function placeBet(Side _side) external payable {\r\n        require(electionFinished == false, 'election is finished');\r\n        bets[_side] += msg.value;\r\n        betsPerGambler[msg.sender][_side] += msg.value;\r\n    }\r\n\r\n    function withdrawGain() external {\r\n        uint gamblerBet = betsPerGambler[msg.sender][result.winner];\r\n        require(gamblerBet > 0, 'you don not have any winning bet');\r\n        require(electionFinished == false, 'election not finished');\r\n\r\n        uint gain = gamblerBet + bets[result.loser] * gamblerBet / bets[result.winner];\r\n        betsPerGambler[msg.sender][Side.Biden] = 0;\r\n        betsPerGambler[msg.sender][Side.Trump] = 0;\r\n\r\n        msg.sender.transfer(gain);\r\n\r\n    }\r\n\r\n    function reportResults(Side _winner, Side _loser)  external {\r\n        require(oracle == msg.sender, 'only oracle');\r\n        require(electionFinished == false, 'election is finished');\r\n\r\n        result.winner = _winner;\r\n        result.loser = _loser;\r\n        electionFinished = true;\r\n    }\r\n}\r\n",
  "sourcePath": "I:/Projects/Ethereum/PredictionMarket/contracts/PredictionMarket.sol",
  "compiler": {
    "name": "solc",
    "version": "0.7.3+commit.9bfce1f6.Emscripten.clang"
  },
  "schemaVersion": "3.3.2",
  "updatedAt": "2021-02-14T23:19:22.140Z",
  "devdoc": {
    "kind": "dev",
    "methods": {},
    "version": 1
  },
  "userdoc": {
    "kind": "user",
    "methods": {},
    "version": 1
  }
}